{
  "_format": "hh-sol-artifact-1",
  "contractName": "PublicJobBoard",
  "sourceName": "contracts/PublicJobBoard.sol",
  "abi": [
    {
      "anonymous": false,
      "inputs": [
        {
          "indexed": true,
          "internalType": "address",
          "name": "previousOwner",
          "type": "address"
        },
        {
          "indexed": true,
          "internalType": "address",
          "name": "newOwner",
          "type": "address"
        }
      ],
      "name": "OwnershipTransferred",
      "type": "event"
    },
    {
      "inputs": [],
      "name": "PublicJobId",
      "outputs": [
        {
          "internalType": "uint256",
          "name": "",
          "type": "uint256"
        }
      ],
      "stateMutability": "view",
      "type": "function"
    },
    {
      "inputs": [
        {
          "internalType": "string",
          "name": "_companyName",
          "type": "string"
        },
        {
          "internalType": "string",
          "name": "_position",
          "type": "string"
        },
        {
          "internalType": "string",
          "name": "_description",
          "type": "string"
        },
        {
          "internalType": "string",
          "name": "_employmentType",
          "type": "string"
        },
        {
          "internalType": "string",
          "name": "_location",
          "type": "string"
        },
        {
          "internalType": "string",
          "name": "_companyUrl",
          "type": "string"
        }
      ],
      "name": "addPublicJob",
      "outputs": [],
      "stateMutability": "nonpayable",
      "type": "function"
    },
    {
      "inputs": [],
      "name": "admin",
      "outputs": [
        {
          "internalType": "address",
          "name": "",
          "type": "address"
        }
      ],
      "stateMutability": "view",
      "type": "function"
    },
    {
      "inputs": [
        {
          "internalType": "address",
          "name": "",
          "type": "address"
        },
        {
          "internalType": "uint256",
          "name": "",
          "type": "uint256"
        }
      ],
      "name": "applicants",
      "outputs": [
        {
          "internalType": "address",
          "name": "",
          "type": "address"
        }
      ],
      "stateMutability": "view",
      "type": "function"
    },
    {
      "inputs": [
        {
          "internalType": "uint256",
          "name": "_publicJobId",
          "type": "uint256"
        }
      ],
      "name": "applyForPublicJob",
      "outputs": [],
      "stateMutability": "nonpayable",
      "type": "function"
    },
    {
      "inputs": [
        {
          "internalType": "uint256",
          "name": "_publicJobId",
          "type": "uint256"
        }
      ],
      "name": "deletePublicJob",
      "outputs": [],
      "stateMutability": "nonpayable",
      "type": "function"
    },
    {
      "inputs": [],
      "name": "owner",
      "outputs": [
        {
          "internalType": "address",
          "name": "",
          "type": "address"
        }
      ],
      "stateMutability": "view",
      "type": "function"
    },
    {
      "inputs": [
        {
          "internalType": "uint256",
          "name": "",
          "type": "uint256"
        }
      ],
      "name": "publicJobs",
      "outputs": [
        {
          "internalType": "uint256",
          "name": "publicJobId",
          "type": "uint256"
        },
        {
          "internalType": "string",
          "name": "companyName",
          "type": "string"
        },
        {
          "internalType": "string",
          "name": "position",
          "type": "string"
        },
        {
          "internalType": "string",
          "name": "description",
          "type": "string"
        },
        {
          "internalType": "string",
          "name": "employmentType",
          "type": "string"
        },
        {
          "internalType": "string",
          "name": "location",
          "type": "string"
        },
        {
          "internalType": "string",
          "name": "companyUrl",
          "type": "string"
        },
        {
          "internalType": "address",
          "name": "employer",
          "type": "address"
        }
      ],
      "stateMutability": "view",
      "type": "function"
    },
    {
      "inputs": [],
      "name": "renounceOwnership",
      "outputs": [],
      "stateMutability": "nonpayable",
      "type": "function"
    },
    {
      "inputs": [
        {
          "internalType": "address",
          "name": "newOwner",
          "type": "address"
        }
      ],
      "name": "transferOwnership",
      "outputs": [],
      "stateMutability": "nonpayable",
      "type": "function"
    },
    {
      "inputs": [],
      "name": "viewPublicJobs",
      "outputs": [
        {
          "components": [
            {
              "internalType": "uint256",
              "name": "publicJobId",
              "type": "uint256"
            },
            {
              "internalType": "string",
              "name": "companyName",
              "type": "string"
            },
            {
              "internalType": "string",
              "name": "position",
              "type": "string"
            },
            {
              "internalType": "string",
              "name": "description",
              "type": "string"
            },
            {
              "internalType": "string",
              "name": "employmentType",
              "type": "string"
            },
            {
              "internalType": "string",
              "name": "location",
              "type": "string"
            },
            {
              "internalType": "string",
              "name": "companyUrl",
              "type": "string"
            },
            {
              "internalType": "address",
              "name": "employer",
              "type": "address"
            }
          ],
          "internalType": "struct PublicJobBoard.PublicJob[]",
          "name": "",
          "type": "tuple[]"
        }
      ],
      "stateMutability": "view",
      "type": "function"
    }
  ],
  "bytecode": "0x60806040526000600155600280546001600160a01b0319163317905534801561002757600080fd5b5061003133610036565b610086565b600080546001600160a01b038381166001600160a01b0319831681178455604051919092169283917f8be0079c531659141344cd1fd0a4f28419497f9722a3daafe3b4186f6b6457e09190a35050565b611278806100956000396000f3fe608060405234801561001057600080fd5b50600436106100a95760003560e01c80638da5cb5b116100715780638da5cb5b14610139578063a61575431461014a578063e05d320314610161578063f2fde38b14610176578063f851a44014610189578063ffb121281461019a57600080fd5b806304183f82146100ae5780630e696857146100de5780633842d118146100f3578063715018a61461011e57806374fad82b14610126575b600080fd5b6100c16100bc366004610f76565b6101ad565b6040516100d59897969594939291906110f7565b60405180910390f35b6100f16100ec366004610e81565b61053a565b005b610106610101366004610e57565b6106c2565b6040516001600160a01b0390911681526020016100d5565b6100f16106fa565b6100f1610134366004610f76565b61070e565b6000546001600160a01b0316610106565b61015360015481565b6040519081526020016100d5565b610169610776565b6040516100d59190610fdc565b6100f1610184366004610e35565b610b62565b6002546001600160a01b0316610106565b6100f16101a8366004610f76565b610be0565b600381815481106101bd57600080fd5b600091825260209091206008909102018054600182018054919350906101e2906111aa565b80601f016020809104026020016040519081016040528092919081815260200182805461020e906111aa565b801561025b5780601f106102305761010080835404028352916020019161025b565b820191906000526020600020905b81548152906001019060200180831161023e57829003601f168201915b505050505090806002018054610270906111aa565b80601f016020809104026020016040519081016040528092919081815260200182805461029c906111aa565b80156102e95780601f106102be576101008083540402835291602001916102e9565b820191906000526020600020905b8154815290600101906020018083116102cc57829003601f168201915b5050505050908060030180546102fe906111aa565b80601f016020809104026020016040519081016040528092919081815260200182805461032a906111aa565b80156103775780601f1061034c57610100808354040283529160200191610377565b820191906000526020600020905b81548152906001019060200180831161035a57829003601f168201915b50505050509080600401805461038c906111aa565b80601f01602080910402602001604051908101604052809291908181526020018280546103b8906111aa565b80156104055780601f106103da57610100808354040283529160200191610405565b820191906000526020600020905b8154815290600101906020018083116103e857829003601f168201915b50505050509080600501805461041a906111aa565b80601f0160208091040260200160405190810160405280929190818152602001828054610446906111aa565b80156104935780601f1061046857610100808354040283529160200191610493565b820191906000526020600020905b81548152906001019060200180831161047657829003601f168201915b5050505050908060060180546104a8906111aa565b80601f01602080910402602001604051908101604052809291908181526020018280546104d4906111aa565b80156105215780601f106104f657610100808354040283529160200191610521565b820191906000526020600020905b81548152906001019060200180831161050457829003601f168201915b505050600790930154919250506001600160a01b031688565b604080516101008101825260018054825260208083018a8152938301899052606083018890526080830187905260a0830186905260c083018590523360e0840152600380549283018155600052825160089092027fc2575a0e9e593c00f959f8c92f12db2869c3395a3b0502d05e2516446f71f85b810192835593518051939485946105ee937fc2575a0e9e593c00f959f8c92f12db2869c3395a3b0502d05e2516446f71f85c9092019290910190610cf3565b506040820151805161060a916002840191602090910190610cf3565b5060608201518051610626916003840191602090910190610cf3565b5060808201518051610642916004840191602090910190610cf3565b5060a0820151805161065e916005840191602090910190610cf3565b5060c0820151805161067a916006840191602090910190610cf3565b5060e09190910151600790910180546001600160a01b0319166001600160a01b03909216919091179055600180549060006106b4836111e5565b919050555050505050505050565b600460205281600052604060002081815481106106de57600080fd5b6000918252602090912001546001600160a01b03169150829050565b610702610c49565b61070c6000610ca3565b565b6003818154811061072157610721611216565b60009182526020909120600890910201600701546001600160a01b031633148061075557506002546001600160a01b031633145b61075e57600080fd5b6001805490600061076e83611193565b919050555050565b60606003805480602002602001604051908101604052809291908181526020016000905b82821015610b59578382906000526020600020906008020160405180610100016040529081600082015481526020016001820180546107d8906111aa565b80601f0160208091040260200160405190810160405280929190818152602001828054610804906111aa565b80156108515780601f1061082657610100808354040283529160200191610851565b820191906000526020600020905b81548152906001019060200180831161083457829003601f168201915b5050505050815260200160028201805461086a906111aa565b80601f0160208091040260200160405190810160405280929190818152602001828054610896906111aa565b80156108e35780601f106108b8576101008083540402835291602001916108e3565b820191906000526020600020905b8154815290600101906020018083116108c657829003601f168201915b505050505081526020016003820180546108fc906111aa565b80601f0160208091040260200160405190810160405280929190818152602001828054610928906111aa565b80156109755780601f1061094a57610100808354040283529160200191610975565b820191906000526020600020905b81548152906001019060200180831161095857829003601f168201915b5050505050815260200160048201805461098e906111aa565b80601f01602080910402602001604051908101604052809291908181526020018280546109ba906111aa565b8015610a075780601f106109dc57610100808354040283529160200191610a07565b820191906000526020600020905b8154815290600101906020018083116109ea57829003601f168201915b50505050508152602001600582018054610a20906111aa565b80601f0160208091040260200160405190810160405280929190818152602001828054610a4c906111aa565b8015610a995780601f10610a6e57610100808354040283529160200191610a99565b820191906000526020600020905b815481529060010190602001808311610a7c57829003601f168201915b50505050508152602001600682018054610ab2906111aa565b80601f0160208091040260200160405190810160405280929190818152602001828054610ade906111aa565b8015610b2b5780601f10610b0057610100808354040283529160200191610b2b565b820191906000526020600020905b815481529060010190602001808311610b0e57829003601f168201915b5050509183525050600791909101546001600160a01b0316602091820152908252600192909201910161079a565b50505050905090565b610b6a610c49565b6001600160a01b038116610bd45760405162461bcd60e51b815260206004820152602660248201527f4f776e61626c653a206e6577206f776e657220697320746865207a65726f206160448201526564647265737360d01b60648201526084015b60405180910390fd5b610bdd81610ca3565b50565b6004600060038381548110610bf757610bf7611216565b60009182526020808320600760089093020191909101546001600160a01b03168352828101939093526040909101812080546001810182559082529190200180546001600160a01b0319163317905550565b6000546001600160a01b0316331461070c5760405162461bcd60e51b815260206004820181905260248201527f4f776e61626c653a2063616c6c6572206973206e6f7420746865206f776e65726044820152606401610bcb565b600080546001600160a01b038381166001600160a01b0319831681178455604051919092169283917f8be0079c531659141344cd1fd0a4f28419497f9722a3daafe3b4186f6b6457e09190a35050565b828054610cff906111aa565b90600052602060002090601f016020900481019282610d215760008555610d67565b82601f10610d3a57805160ff1916838001178555610d67565b82800160010185558215610d67579182015b82811115610d67578251825591602001919060010190610d4c565b50610d73929150610d77565b5090565b5b80821115610d735760008155600101610d78565b80356001600160a01b0381168114610da357600080fd5b919050565b600082601f830112610db957600080fd5b813567ffffffffffffffff80821115610dd457610dd461122c565b604051601f8301601f19908116603f01168101908282118183101715610dfc57610dfc61122c565b81604052838152866020858801011115610e1557600080fd5b836020870160208301376000602085830101528094505050505092915050565b600060208284031215610e4757600080fd5b610e5082610d8c565b9392505050565b60008060408385031215610e6a57600080fd5b610e7383610d8c565b946020939093013593505050565b60008060008060008060c08789031215610e9a57600080fd5b863567ffffffffffffffff80821115610eb257600080fd5b610ebe8a838b01610da8565b97506020890135915080821115610ed457600080fd5b610ee08a838b01610da8565b96506040890135915080821115610ef657600080fd5b610f028a838b01610da8565b95506060890135915080821115610f1857600080fd5b610f248a838b01610da8565b94506080890135915080821115610f3a57600080fd5b610f468a838b01610da8565b935060a0890135915080821115610f5c57600080fd5b50610f6989828a01610da8565b9150509295509295509295565b600060208284031215610f8857600080fd5b5035919050565b6000815180845260005b81811015610fb557602081850181015186830182015201610f99565b81811115610fc7576000602083870101525b50601f01601f19169290920160200192915050565b60006020808301818452808551808352604092508286019150828160051b87010184880160005b838110156110e957603f1989840301855281516101008151855288820151818a87015261103282870182610f8f565b915050878201518582038987015261104a8282610f8f565b915050606080830151868303828801526110648382610f8f565b925050506080808301518683038288015261107f8382610f8f565b9250505060a0808301518683038288015261109a8382610f8f565b9250505060c080830151868303828801526110b58382610f8f565b9250505060e08083015192506110d5818701846001600160a01b03169052565b509588019593505090860190600101611003565b509098975050505050505050565b60006101008a83528060208401526111118184018b610f8f565b90508281036040840152611125818a610f8f565b905082810360608401526111398189610f8f565b9050828103608084015261114d8188610f8f565b905082810360a08401526111618187610f8f565b905082810360c08401526111758186610f8f565b91505060018060a01b03831660e08301529998505050505050505050565b6000816111a2576111a2611200565b506000190190565b600181811c908216806111be57607f821691505b602082108114156111df57634e487b7160e01b600052602260045260246000fd5b50919050565b60006000198214156111f9576111f9611200565b5060010190565b634e487b7160e01b600052601160045260246000fd5b634e487b7160e01b600052603260045260246000fd5b634e487b7160e01b600052604160045260246000fdfea26469706673582212200cd7df518fcb7f8d4d8b7d8c6747ba98fac1416a36f38843862cbabd5a778e6f64736f6c63430008070033",
  "linkReferences": {},
  "deployedLinkReferences": {}
}